:100000000C94B1020C94F5020C94F5020C94F502D8
:100010000C94F5020C94F5020C94F5020C94F50284
:100020000C94F5020C94F5020C94B3250C948526DF
:100030000C943F1C0C94F5020C94F5020C94F50200
:100040000C94F5020C94F5020C94F5020C94F50254
:100050000C94F5020C94A61C0C94F5020C94F50279
:100060000C94F5020C94F5020C94F5020C94F50234
:100070000C94F5020C94F5020C94F5020C94F50224
:100080000C94F5020C94F5020C94F5020C94F50214
:100090000C94F5020C94F5020C94F5020C94F50204
:1000A0000C94F5020C94F5020C94F5028B03910369
:1000B000950398039C03A003A403A803AD03B10315
:1000C000B503B903BC03C003C403C803CC03D10305
:1000D0008D128D12C712C71206132813BA14BA1440
:1000E0006A13BA141114111488148F14BA14B514A5
:1000F0001E141E141E141E141E141E141E141E1470
:100100001E141E141E141E141E141E141E141E145F
:100110003014401447144E1458144E154E156115E2
:10012000611557156115611561154E154E155D1553
:10013000611561155D15EA261127FF271127FF2795
:1001400059277C27FF27D227E12707634236B79B31
:10015000D8A71A39685618AEBAAB558C1D3CB7CC27
:100160005763BD6DEDFD753EF6177231BF0000009F
:10017000803F05A84CCDB2D44EB93836A9020C50F8
:10018000B9918688083CA6AAAA2ABE000000803F32
:10019000F1A129001E001F002000210022002300E1
:1001A00024002500260027002D002E002A002B0009
:1001B00014001A000800150017001C0018000C009D
:1001C000120013002F003000000039000400160058
:1001D000070009000A000B000D000E000F0033009D
:1001E000340032002800E10031001D001B00060031
:1001F00019000500110010003600370038004C00CF
:100200005200E000E300E200000000002C000000CB
:10021000E500000000000020E600E700E4002900FF
:100220003A003B003C003D003E003F0040004100E2
:1002300042004300440045004C000000AA00A80012
:10024000A900000000000000000000004A00520069
:100250004D00C05C00000000AE00AD0000000000DA
:100260000000000000004B00500051004F004E0005
:100270002800E100C35CC45C7B007C007D00C65CA0
:10028000C75CC85CC95CCA5CCB5C4D004B00E0003D
:10029000E300E200000000002C0000004900000024
:1002A0000000E70000204E0000006801F000B400EC
:1002B00078005A007F3F1F643214643214783C1E69
:1002C0001E140A05000000000001010101010101E6
:1002D00001010202020202020202020303030303FB
:1002E00003030304040404040405050505050606C8
:1002F00006060607070707080808080909090A0A81
:100300000A0A0B0B0B0C0C0C0D0D0D0E0E0F0F0F24
:1003100010101111111212131314141515161617AB
:1003200017181819191A1A1B1C1C1D1D1E1F1F2017
:10033000202122222324252526272728292A2B2B62
:100340002C2D2E2F2F303132333435363637383985
:100350003A3B3C3D3E3F4041424344464748494A80
:100360004B4C4D4F50515253555657585A5B5C5E4B
:100370005F606263646667696A6C6D6E70717374E6
:100380007678797B7C7E8081838486888A8B8D8F4A
:1003900091929496989A9B9D9FA1A3A5A7A9ABAD76
:1003A000AFB1B3B5B7B9BBBDBFC1C4C6C8CACCCF66
:1003B000D1D3D6D8DADCDFE1E4E6E8EBEDF0F2F514
:1003C000F7FAFCFF0E0358004400360030007600B8
:1003D000320000000C035800490055004400490059
:1003E00000000403090409026D00040100A0FA09D9
:1003F0000400000103010100092111010001224054
:10040000000705810308000A090401000103010235
:1004100000092111010001224D0007058203080097
:100420000A09040200010300000009211101000172
:100430002236000705830308000A090403000103AC
:100440000000000921110100012239000705840381
:100450002000011201100100000008EDFE606001A3
:10046000000102000105010906A101050719E029A3
:10047000E715002501950875018102050819012974
:1004800005950575019102950175039101050719FF
:100490000029F71500250195F875018102C00501B5
:1004A0000980A10185021601002603001A81002A95
:1004B0008300751095018100C0050C0901A101851B
:1004C00003160100269C021A01002A9C0275109551
:1004D000018100C005010902A1010901A10005096E
:1004E0001901290515002501950575018102950160
:1004F000750381010501093009311581257F9502B8
:100500007508810609381581257F950175088106D2
:10051000050C0A38021581257F950175088106C0F2
:10052000C005010906A101050719E029E715002505
:100530000195087501810295017508810105081969
:100540000129059505750191029501750391010534
:1005500007190029FF150026FF0095067508810080
:10056000C00011241FBECFEFDAE0DEBFCDBF04B65E
:1005700003FE24C08091540290915502A09156022E
:10058000B09157028730904BA740B04BB9F410920E
:10059000540210925502109256021092570214BE45
:1005A00084B7877F84BF88E10FB6F894809360009A
:1005B000109260000FBEE0E0F8E3099511E0A0E0C2
:1005C000B1E0E6E7F7E502C005900D92AC33B10764
:1005D000D9F712E0ACE3B1E001C01D92A435B10738
:1005E000E1F70E94E5220C94B92B0C94000081FFE6
:1005F00002C0229A01C022982A980C94E305611146
:100600000BC0FC018281882321F085EE0E94E4105A
:1006100003C085EE0E94DC1180E090E0089508950B
:1006200081E0089581E008950C9412030E943C1526
:100630002FEF84E39CE0215080409040E1F700C020
:1006400000000C94CC1C0F931F93CF93DF938C016D
:10065000FC01C081D181CE010E942A1ABE010E94F4
:10066000E705EC01B8010E941403882309F46CC269
:10067000B801CE010E947008882309F465C2CA3C03
:10068000FCE5DF0741F4F8018281882309F45CC2AC
:100690000E94F50B59C2CB3C8CE5D80708F027C166
:1006A000C33C9CE5D90741F4F8018281882309F411
:1006B0004BC20E94BA0C48C2C43CECE5DE0708F00D
:1006C000CFC0C531FCE5DF0708F07DC0C2308CE546
:1006D000D80708F49FC0F8018281882309F493C0E9
:1006E0000E943C1B811102C00E94161B0E94591BD4
:1006F00090E09093450280934402FE01E350FC4554
:10070000E231F10520F4EA5AFF4F0C946B2B8091F3
:100710004402816003C0809144028260809344025D
:100720004BC0809144028460F9CF8091440213C091
:10073000809144028061F2CF809144028062EECFCA
:10074000809144028064EACF809144028068E6CFC1
:100750008091440284608860E1CF809144028E7F62
:10076000DDCF809144028D7FD9CF809144028B7F71
:10077000D5CF8091440213C0809144028F7ECECFAA
:10078000809144028F7DCACF809144028F7BC6CF77
:10079000809144028F77C2CF809144028B7F877F04
:1007A000BDCF9091440297FB882780F921E08227F2
:1007B00080FB97F990934402809144020E945D1B54
:1007C0000E943C15C1C1C531DC45C1F40E94DD1A4F
:1007D000382FF80122818091020190910301222398
:1007E000A9F13A7A21E009F420E020933D01222387
:1007F00059F165E30E94D21B0E94AA1A81E08093FE
:10080000420180934301C801DF91CF911F910F9165
:100810000C941003C1159CE5D90741F4F8018281BD
:10082000882309F491C10E9416038EC1C130DC45B2
:1008300029F7F8018281882309F486C18091F601A5
:1008400081608093F60180C169E2D4CF20913D019F
:10085000222311F065E301C069E20E94DD1BCCCFC9
:10086000C63C8CE5D80741F4F8018281882309F45D
:100870006BC10E94880B68C1C73C9CE5D907E0F4B6
:10088000C43CECE5DE0741F4F8018281882309F4D9
:100890005BC10E94A70C58C1C53CDC4509F0AECF36
:1008A000F8018281882309F44FC10E94DD1A827207
:1008B00081F30E94B10C48C1F8018281C83CFCE57B
:1008C000DF0731F4882309F43FC10E94C00B3CC10B
:1008D000C93CDC4530F4882309F436C10E94A10BE1
:1008E00033C1882309F430C10E94DB0B2DC1C13D07
:1008F000ECE5DE07C1F4F8018281882309F424C104
:100900000E945B0A653171058105910540F00E94E6
:100910005B0A673171058105910508F4BACF85E15D
:100920000E942A0C11C1C23DFCE5DF0708F07AC025
:10093000CD3C8CE5D807B1F4F8018281882309F415
:1009400003C10E945B0A623071058105910540F088
:100950000E945B0A653071058105910508F499CF05
:1009600082E0DECFCE3C9CE5D907B8F4CB3CECE589
:10097000DE0741F4F8018281882309F4E5C00E9472
:10098000100CE2C0CC3CDC4509F038CFF801828184
:10099000882309F4D9C081E0C3CFF8018281CF3C1C
:1009A000FCE5DF07A1F4882309F4CEC00E945B0AAE
:1009B000693071058105910540F00E945B0A6E3037
:1009C00071058105910508F464CF89E0A9CFC03D88
:1009D000DC45A0F4882309F4B7C00E945B0A6630A6
:1009E00071058105910540F00E945B0A6830710530
:1009F0008105910508F44DCF86E092CF882309F454
:100A0000A3C00E945B0A6F3071058105910540F01B
:100A10000E945B0A643171058105910508F439CFA4
:100A20008FE07ECFC43DECE5DE0719F5F801828149
:100A3000882351F0109242010E94711C90933F0153
:100A400080933E0182E034C08091420181110FC049
:100A500080913E0190913F010E947D1C883C910550
:100A600030F486E20E94E41086E20E94DC1182E00B
:100A700027C0C53DFCE5DF0730F1C83DECE5DE07EA
:100A800009F444C0C93DFCE5DF0709F445C0C53D94
:100A9000DC4509F0B3CEF8018281882361F0109221
:100AA00043010E94711C909341018093400180E2B8
:100AB0000E943D1249C0809143018823A9F180E240
:100AC0000E94441241C0C23D8CE5D80731F4F801C0
:100AD00082818823C9F188E123CFC33DDC4509F039
:100AE0008DCEF8018281882379F10E945B0A6931F9
:100AF00071058105910540F00E945B0A6232710523
:100B00008105910508F4C5CE89E10ACFF8018281FB
:100B10008823D1F080E005C0F80182818823A1F00C
:100B200082E00E94792310C08091400190914101A0
:100B30000E947D1C883C910510F687E20E94E4101B
:100B400087E20E94DC11BBCF80E0DF91CF911F9143
:100B50000F910895859A8D980C946F200E94AA0594
:100B60000C94BD08089520914602269586E090E0F9
:100B7000821B91099C01220F331F280F391F8FEF11
:100B80009FEF02C0969587952A95E2F721E030E025
:100B900000903C0102C0220F331F0A94E2F7822327
:100BA0009323892B11F08D9801C08D9A80913C017F
:100BB00090E001968F70992780933C0108950E94E0
:100BC000B3050C94BF0808950C94F70208959EE0B5
:100BD000799FF001112496E4899FE00DF11D112405
:100BE000E60FF11DEE0FFF1FEE56FE4F859194911B
:100BF0000895880F991F80579E4FFC01859194910D
:100C00000895CF93DF930E94E7050E94C607EC0189
:100C1000811521E5920708F044C0C11580E5D80789
:100C200008F01FC1C83ED10510F5C03ED10508F03F
:100C3000A9C1C83AD10578F4C53AD10508F09CC0DD
:100C4000C130D10509F49EC108F455C1C430D105A5
:100C500008F098C150C1CD3BD10508F498C0C03C04
:100C6000D10508F448C1CE01805C9109E9C0C115E5
:100C700020E3D20780F4C11580E2D80708F0DEC077
:100C8000C03FD10508F437C1CF3FD10511F008F0BE
:100C900079C1D06577C1C11520E4D20708F0DEC064
:100CA000D3C0C11586E5D80768F5C11525E5D2077B
:100CB00008F00DC1C11583E5D80750F4C11522E530
:100CC000D20708F0EAC0DC2FCC27C16FD06A5AC126
:100CD000C11584E5D80708F0F5C08C2F8695869558
:100CE00020E2829FC00111249E0123703327C1E0BE
:100CF000D0E002C0CC0FDD1F2A95E2F7C82BD92B1C
:100D0000DA6840C1CF3B2CE5D20709F4EBC098F478
:100D1000C11528E5D20708F4EEC0C11589E5D8074A
:100D200008F4DBC0CF3A2CE5D20708F4E4C0CF5A70
:100D3000DC45D46D27C1C23C8CE5D80709F4D8C086
:100D400060F4C03C8CE5D80709F4CFC0C13CDC4559
:100D500009F0D1C0C0E0D2ED15C1CE019056811589
:100D6000904208F0C8C08D2F8F710E944208DD2785
:100D7000D0628F71D82B06C1C53AD10509F4BEC027
:100D8000C63AD10509F4BDC0C3E8D0E4FBC0C83AF7
:100D9000D10509F4B9C0C93AD10509F4B8C0CA3AB5
:100DA000D10509F4B7C0CB3AD10509F4B6C0CC3AA5
:100DB000D10509F4B5C0CB3BD10509F4B4C0CC3B97
:100DC000D10509F4B3C0CD3AD10509F4B2C0C03B96
:100DD000D10509F4B1C0CE3AD10509F4B0C0CF3A7B
:100DE000D10509F4AFC0C13BD10509F4AEC0C23B87
:100DF000D10509F4ADC0C33BD10509F4ACC0C43B77
:100E0000D10509F4ABC0C53BD10509F4AAC0C63B66
:100E1000D10509F4A9C0C73BD10509F4A8C0C83B56
:100E2000D10509F4A7C0C93BD10509F4A6C0CA3B46
:100E3000D10509F0A5C0CAE2D6E4A4C0CE019F70D6
:100E40000E94F905EC019EC0CE019927D3FF03C093
:100E5000EC01D86C97C0EC01D06C94C0DF70D06A04
:100E600091C02C2F237081E090E002C0880F991F61
:100E70002A95E2F79C689E0174E0369527957A954D
:100E8000E1F72370922BCF70C695C69520E2C29FE2
:100E9000E0011124C82BD92B75C08C2F869586951F
:100EA00020E2829FC00111249E0123703327C1E0FC
:100EB000D0E002C0CC0FDD1F2A95E2F7C82BD92B5A
:100EC000DC6860C0DC2FCC27C46FD06A5BC0CF71F8
:100ED000DD27DC2FCC27D06255C0DC2FCC27C06F9C
:100EE000D06A50C0C0E0D1ED4DC0C0E0D0ED4AC0E6
:100EF000C0E0D3ED47C0C0E0D0E044C0C1E8D0E4DA
:100F000041C0C2E8D0E43EC0C2EED4E43BC0C9EE6A
:100F1000D4E438C0CAEED4E435C0C5EBD4E432C062
:100F2000C6EBD4E42FC0C3EBD4E42CC0C4EBD4E4B0
:100F300029C0C7EBD4E426C0CCECD4E423C0CDEC6C
:100F4000D4E420C0C3E8D5E41DC0CAE8D5E41AC083
:100F5000C2E9D5E417C0C4E9D5E414C0C1E2D6E4BF
:100F600011C0C3E2D6E40EC0C4E2D6E40BC0C5E2B1
:100F7000D6E408C0C6E2D6E405C0C7E2D6E402C0A3
:100F8000C0E0D4E4CE01DF91CF910895823891057D
:100F900049F1B0F48133910509F459C048F489321C
:100FA000910509F44FC08A32910509F455C008959E
:100FB0008533910509F441C08933910599F008956D
:100FC000833E910531F138F4803E910591F0823EE7
:100FD0009105A9F00895863E910501F1873E91059E
:100FE00039F108952091440220FD3BC021FD39C014
:100FF00008958091440280FF34C089E341C080910C
:10100000440282FF32C08091440284FF2CC080E001
:1010100037C08091440282FD28C0F5CF8091440200
:1010200083FF25C08091440284FDF1CF87EE28C064
:101030008091440283FD1BC0F5CF8091440285FF5F
:1010400018C019C08091440285FF15C012C080915C
:10105000440286FF12C013C08091440286FF0FC075
:101060000CC080EE0DC083EE0BC082EE09C086EE90
:1010700007C085E305C089E203C081E301C08AE2BD
:1010800090E00895CF93C82F0E94591B282F30E07D
:10109000309345022093440282FF0DC08C2F88714B
:1010A000883019F4C77FC46006C08C2F84718430E7
:1010B00011F4CB7FC86023FF0DC08C2F887188315D
:1010C00019F4C77EC46106C08C2F8471843111F479
:1010D000CB7EC86124FDC77E8C2FCF9108950895E3
:1010E000CF93DF93EC01FB018281811102C081E08B
:1010F00040C080915101811125C0C631DC45B9F74E
:101100000E946F0881E0809351010E94711C9093AE
:10111000500180934F0110924401109246011092A9
:101120004501109248011092470110924A01109215
:10113000490110924C0110924B0110924E011092F5
:101140004D0116C080914F01909150010E947D1C6D
:10115000883C910560F680914401E82FF0E0EE0FA5
:10116000FF1FEB5BFE4FD183C0838F5F80934401F1
:1011700080E0DF91CF91089508950C94BC080C9401
:101180000F0385B7806885BF85B7806885BFA3E2F8
:10119000B1E021E030E08D91E82FE295EF70F0E0D2
:1011A00041A18F70B90102C0660F771F8A95E2F7DF
:1011B000CB01962F9095492341A392A1982B92A3FE
:1011C00071E0A832B70739F7A5E1B1E021E030E0DE
:1011D0008D91E82FE295EF70F0E041A18F70B90199
:1011E00002C0660F771F8A95E2F7CB01962F909584
:1011F000492341A392A1982B92A371E0A332B70790
:1012000039F7ECE5F1E0A2E5B1E0119211921D92FF
:101210001D9281E0E636F807C1F70C94AE054F92B7
:101220005F927F928F929F92AF92BF92CF92DF9206
:10123000EF92FF920F931F93CF93DF9303E211E09E
:10124000C2E5D1E0EE24E394F12C99249394BE01FD
:10125000A880B98019821882D8012D918D01E22FC2
:10126000E295EF70F0E081A12F70A70102C0440F5A
:10127000551F2A95E2F79A01842B81A382A1842E1F
:101280008094882182A350EA5A95F1F745E1442ED3
:1012900041E0542E80E090E0D2014D912D01C42E0A
:1012A000C2943FE0C322D12CD60190967C90C88096
:1012B000D9804F70D70102C0AA0FBB1F4A95E2F731
:1012C0007A2241F4A701082E02C0440F551F0A9448
:1012D000E2F702C040E050E04C295D295983488381
:1012E00001968E309105C1F681A1882181A382A14A
:1012F000822B82A32296FB0180819181A816B906D8
:1013000041F0909266010E94711C90936801809355
:101310006701F1E008321F0709F099CF809166015B
:101320008823B1F080916701909168010E947D1C33
:10133000069770F0E2E5F1E0ACE5B1E081919191C2
:101340008D939D9341E0EC35F407C1F7109266014F
:101350000E94DF0581E0DF91CF911F910F91FF90F7
:10136000EF90DF90CF90BF90AF909F908F907F9045
:101370005F904F900895E82FF0E0EE0FFF1FE45AC2
:10138000FE4F8081918108950895DF92EF92FF9240
:101390000F931F93CF93DF93662309F44AC0E42F82
:1013A000F0E0AFEFB0E0A61BB109BF01A69FE001DE
:1013B000A79FD00DB69FD00D1124FD2FDD2E7B01F0
:1013C000ED1AF1080CE310E0B8010E94432BEB0189
:1013D000BC01E69EC001E79E900DF69E900D112483
:1013E000B8010E94432BC230D105B1F040F42097E0
:1013F00079F0219709F58F2FD42E461B20C0C430D9
:10140000D10599F068F02597B9F4842F861B17C091
:101410008F2FD62EDF0E13C0862F8F0FD42E03C032
:10142000D42ED61A842F4F2F0AC0842F462F4F0F49
:1014300006C0842FD42E03C080E0D12C40E0E42FDE
:10144000F0E0EC53FD4F4491ED2DF0E0EC53FD4FF7
:101450009491E82FF0E0EC53FD4FE491D9011196FF
:101460004C9311979C931296EC93DF91CF911F911F
:101470000F91FF90EF90DF90089588E090E00C943A
:10148000792BAB01BC0188E090E00C94972B83E0B2
:1014900080932402109225028FEF8093260280937E
:1014A000270260912402709125028091260290917A
:1014B00027020C94410A6091240260FF06C06695E1
:1014C0006F7370E080E090E0089560E070E0CB0121
:1014D00008958091240280FF06C066E070E08CE2EF
:1014E00092E00C94930FEEE2F2E0DF0111971C9270
:1014F000DF0112971C921082339682E0E034F807E5
:10150000A1F7EBCFEEE2F2E0DF0111978C93DF0160
:1015100012976C934083339692E0E034F907A1F779
:101520000C94690ACF92DF92EF92FF920F931F9370
:10153000CF93DF9300D01F92CDB7DEB7F82EC92E20
:10154000D62EE42E0091240210912502209126022D
:1015500030912702009328021093290220932A0237
:1015600030932B028091240280FF1EC09E012F5FCA
:101570003F4F8F2D0E94C50980912802F0FA87F90C
:1015800080932802F6942091290220782F29C0FA0E
:1015900027F920932902D0922A02E0922B024B8154
:1015A00069818A810E94820A0F900F900F90DF91CB
:1015B000CF911F910F91FF90EF90DF90CF90089502
:1015C0008F929F92AF92BF92CF92DF92EF92FF9253
:1015D0000F931F93CF93DF93EC01862E942E80916F
:1015E000240280FF88C0982F9E77923021F4CE018C
:1015F0000E94920A56C0E82FE695EF739EE39E0F75
:101600009F73943018F4909027024BC09AE39E0F7A
:101610009F73993070F4881F8827881F9091250246
:10162000292F220FC22FC82B97FB992790F9D92F6A
:1016300038C087E28E0F8F738A3098F5F0E0799783
:10164000E0FF02C02FEF01C021E0EE7FE655FD4F25
:101650008591949166E070E00E94432B260360011F
:10166000279FD00C11247E0188E9E81A8EEFF80A32
:101670000CE212E088E6A82EBB24B394C701B501A2
:101680000E94432B9801492D682D0E94C509EC0C3E
:10169000FD1C0D5F1F4F92E00E33190779F70E9472
:1016A000690A809124029C2FC0FB87F98093240251
:1016B0009695809125028078892BD0FB87F98093BD
:1016C0002502809226029092270260912402709156
:1016D00025028091260290912702DF91CF911F91E0
:1016E0000F91FF90EF90DF90CF90BF90AF909F90C1
:1016F0008F900C94410ADF91CF911F910F91FF9031
:10170000EF90DF90CF90BF90AF909F908F90089513
:1017100020912402221F2227221F30912502432FCD
:10172000440F842F822B37FB992790F90A9668E69D
:1017300071E00E94572B40912702609126020C9481
:10174000E00A20912402221F2227221F3091250225
:10175000432F440F842F822B37FB992790F98A302F
:1017600091051CF4825A9E4F01C00A9768E671E009
:101770000E94572B40912702609126020C94E00AA8
:1017800060912602862F90E08F3E910514F46F5EE3
:1017900001C06FEF80912402881F8827881F9091D5
:1017A0002502292F220F97FB992790F940912702B4
:1017B000822B0C94E00A60912602862F90E04197DC
:1017C00014F0615101C060E080912402881F8827D5
:1017D000881F90912502292F220F97FB992790F9B6
:1017E00040912702822B0C94E00A40912702842F1B
:1017F00090E08F3E910514F44F5E01C04FEF809151
:101800002402881F8827881F90912502292F220FE4
:1018100097FB992790F960912602822B0C94E00A9D
:1018200040912702842F90E0419714F0415101C06C
:1018300040E080912402881F8827881F909125020C
:10184000292F220F97FB992790F960912602822B6E
:101850000C94E00A9091240290FF44C09178811189
:1018600002C0926003C0833220F0946490932402FB
:1018700005C08F73880F892B809324026091240206
:101880007091250280912602909127020E94410AC0
:1018900080912402982F9E77923019F410927E0145
:1018A00010C0982F96959F732EE3290F2F73273121
:1018B00020F491E090937E0104C0995D9F739A306B
:1018C00068F3881F8827881F90912502292F220FEF
:1018D00097FB992790F94091270260912602822B6D
:1018E0000C94E00A08958091F60181608093F601DE
:1018F00081E080937F010E943C1B811104C00E9403
:10190000161B0E94470A0E943D0A609324027093AE
:10191000250280932602909327026E7761F40E943D
:10192000470A0E943D0A6093240270932502809327
:1019300026029093270281E080937E018091240209
:1019400080FF04C086958F730C942A0C08958091B3
:10195000240286958F738F5F833208F081E00C94A8
:101960002A0C8091240286958F73815009F482E2BB
:101970000C942A0C80912402982F909590FB80F96A
:1019800080932402609124027091250280912602A6
:10199000909127020E94410A8091240280FF04C096
:1019A00086958F730C942A0C10927E012FEF80E79E
:1019B00092E0215080409040E1F700C000000C947C
:1019C000690ACF93C82F80917C0190917D010E947C
:1019D0007D1CEC2FF0E0E054FD4FE491F0E08E1719
:1019E0009F0708F442C00E94711C90937D01809370
:1019F0007C0160917B0170E080E090E00E946129B1
:101A000020E030E04FE753E40E949A282BED3FE0BE
:101A100049E450E40E94822A0E94E52A0E94072994
:101A20002BE43AE34EE25FE30E94352820EF3BEFE0
:101A300048ED52E40E94822A0E943329462F809169
:101A40002402881F8827881F90912502292F220FA2
:101A500097FB992790F960912602822B0E94920AA7
:101A600080917B018F5F80937B01CF910895CF930D
:101A7000C82F8091790190917A010E947D1CEC2FF2
:101A8000F0E0E354FD4FE491F0E08E179F07E8F09B
:101A90000E94711C90937A018093790140912702F2
:101AA0006091260280917701909178010E94920ABC
:101AB0008091770190917801019668E671E00E942B
:101AC000432B9093780180937701CF910895DF9213
:101AD000EF92FF920F931F93CF93DF93D82E8091B5
:101AE0007501909176010E947D1CED2DE695F0E048
:101AF000E654FD4FE491F0E08E179F07E8F10E9455
:101B0000711C90937601809375010CE212E0C0E0A5
:101B1000D0E098E6E92EFF24F39480917301909130
:101B200074018C0F9D1FB7010E94432B98014091B7
:101B30002702609126020E94C509EC960D5F1F4F97
:101B4000C83681E0D80749F70E94690A20917301DD
:101B500030917401D0FE0AC0C9010196BE010E94F5
:101B6000432B909374018093730106C02150310977
:101B70003093740120937301DF91CF911F910F91E6
:101B8000FF90EF90DF900895AF92BF92CF92DF92D7
:101B9000EF92FF920F931F93CF93DF93C82F80FD97
:101BA00003C0BB24B39402C0BB24BA9480917101DA
:101BB000909172010E947D1CC695EC2FF0E0E954D3
:101BC000FD4FE491F0E08E179F0708F466C00E9475
:101BD000711C90937201809371014CE2E42E42E0FB
:101BE000F42E0EE212E0C0E0D0E0F801319710824E
:101BF000F7011082F801108234E0C32ED12CA12C01
:101C0000809170018A0D87FD8A5F992787FD9095E5
:101C1000C817D907E9F4809127028C9DA0018D9DFA
:101C2000500D11245595479555954795809124025F
:101C3000881F8827881F90912502592F550F97FBE1
:101C4000992790F9970160912602852B0E94C5097A
:101C5000AB0CF1E0CF1AD108C114D10489F621965A
:101C600083E0E80EF11C0D5F1F4FC630D10509F06F
:101C7000BCCF0E94690A8091700191E0B91206C040
:101C8000811102C085E007C0815005C090E0019637
:101C9000BE010E94572B80937001DF91CF911F915D
:101CA0000F91FF90EF90DF90CF90BF90AF9008958D
:101CB0000F931F93CF93DF93C82F80916E01909164
:101CC0006F010E947D1CEC2FF0E0EC54FD4FE4917D
:101CD000F0E08E179F0708F468C00E94711C909373
:101CE0006F0180936E01EEE2F2E0DF0111971C922A
:101CF000DF0112971C921082339682E0E034F807DD
:101D0000A1F7C0E0D0E006E010E0CE01B8010E94EB
:101D1000572B20916D01332727FD3095FC01EE0FE5
:101D2000FF1FC217D3070CF120910101332727FDB4
:101D300030952C173D07CCF09F01280F391F245DEB
:101D40003D4F80912402881F8827881F909125028B
:101D5000592F550F97FB992790F9409127026091D1
:101D60002602852B0E94C50907C0E80FF91FE45D14
:101D7000FD4F1182108212822196C630D10529F6BC
:101D80000E94690A2091000180916D01820F809369
:101D90006D0190910101920F90930101191614F4B5
:101DA00085301CF0219520930001DF91CF911F9188
:101DB0000F910895EF92FF920F931F93CF93DF93AC
:101DC00080916B0190916C010E947D1C883E934034
:101DD000C8F10E94711C90936C0180936B01C091BB
:101DE0006901D0916A012196C170DD27D0936A0103
:101DF000C09369010CE212E0F12C68E7E62E8F2D0A
:101E00008695FE01E80FF11DCF0181709927980199
:101E10004091270260912602FC01EE9EC001EF9ED8
:101E2000900D11240E94C509F3940D5F1F4FF6E039
:101E3000FF12E5CFDF91CF911F910F91FF90EF90AF
:101E40000C94690ADF91CF911F910F91FF90EF9051
:101E5000089580917E01882391F120912402822FA0
:101E600086958F739EE3980F9F73943018F4825079
:101E70000C94E10C9AE3980F9F73933018F48650FA
:101E80000C94370D97E3980F9F73963018F4895090
:101E90000C94670D91E3980F9F73963018F48F5050
:101EA0000C94C40D9BE2980F9F73933018F48551E6
:101EB0000C94580E2E77203311F40C94DA0E0895FA
:101EC00031B3242F2095232331B3342B4FB7F8940B
:101ED000FC01680F791FE617F70789F0819198E0F8
:101EE00031BB000000C087FF21BB880F000000C08D
:101EF00000C000C021BB00C09A9591F7ECCF4FBF46
:101F0000089520B3242B20BB9B01220F331F260FE3
:101F1000371FB9010E94600F87EC90E00197F1F73D
:101F200000C00000089540E40C94810F9093850157
:101F3000809384010895E0918401F09185013097A8
:101F400021F00190F081E02D099480E00895E09166
:101F50008401F0918501309721F00280F381E02D1A
:101F600009940895E0918401F0918501309721F062
:101F70000480F581E02D099408952091820130912B
:101F800083018217930771F09093830180938201FC
:101F9000E0918401F0918501309721F00680F7816E
:101FA000E02D0994089520918001309181018217DC
:101FB000930771F09093810180938001E0918401F7
:101FC000F0918501309721F00084F185E02D09948E
:101FD000089508950C94E90F81E008950E94681C0B
:101FE0000E94C1080E943A1D0E946F200C94730C3D
:101FF0005F926F927F928F929F92AF92BF92CF9299
:10200000DF92EF92FF920F931F93CF93DF93CDB7A1
:10201000DEB72A970FB6F894DEBF0FBECDBF0E9481
:102020000F090E94EC0F811111C08FEF89838A8301
:102030001B820E94711C8160782F9D838C83498153
:102040005A816B818D810E94B61057C097E8C92EC6
:1020500091E0D92E00E010E0AA24A394B12C502ED8
:10206000802F0E94BB093C01F601E190F1906F01C5
:10207000E826F926E114F10431F40F5F1F4F053013
:10208000110569F7D2CF8091F60181FD0E94C40944
:1020900020E030E04501022E02C0880C991C0A9411
:1020A000E2F7C4018E219F21892B09F12E835F82E3
:1020B0006820792081E0672809F480E088870E9401
:1020C000711C8160782F9A8789874E815F8168852E
:1020D0008A850E94B610F801EE0FFF1FE957FE4FE8
:1020E00080819181882599259183808306C02F5F07
:1020F0003F4F2E30310571F6C0CF0E94DA1F10918C
:1021000086010E949B0F1817D9F00E949B0F8093A5
:1021100086012A960FB6F894DEBF0FBECDBFDF91C1
:10212000CF911F910F91FF90EF90DF90CF90BF90D4
:10213000AF909F908F907F906F905F900C94E4058C
:102140002A960FB6F894DEBF0FBECDBFDF91CF91B8
:102150001F910F91FF90EF90DF90CF90BF90AF90C5
:102160009F908F907F906F905F900895CF93DF93B3
:10217000CDB7DEB72B970FB6F894DEBF0FBECDBF3D
:102180004F83588769877A878B87DE01119686E0AF
:10219000FD0111928A95E9F785E0FE0137960190DD
:1021A0000D928A95E1F749815A816B817C818D81FD
:1021B0009E810E9406182B960FB6F894DEBF0FBEC4
:1021C000CDBFDF91CF910895882309F4F4C0823800
:1021D000C1F40E949B0F81FDEEC069E38091020172
:1021E000909103010E94D21B0E94AA1A2FEF81EE48
:1021F00094E0215080409040E1F700C0000069E386
:1022000019C08338F9F40E949B0F80FDD4C063E5A8
:1022100080910201909103010E94D21B0E94AA1A90
:102220002FEF81EE94E0215080409040E1F700C014
:10223000000063E580910201909103010E94DD1B83
:102240000C94AA1A8438C1F40E949B0F82FDB3C07B
:1022500067E480910201909103010E94D21B0E94C9
:10226000AA1A2FEF81EE94E0215080409040E1F7D0
:1022700000C0000067E4DECF9CEF980F913A40F475
:10228000682F80910201909103010E94D21BD8CF48
:1022900090E2980F983050F4877091E001C0990F48
:1022A0008A95EAF7892F0E94E01ACACF9BE5980F1A
:1022B000933070F4853A29F0863A31F482E890E060
:1022C00005C081E890E002C083E890E00C94BD0F67
:1022D00098E5980F953108F06EC0883A61F1893A17
:1022E00069F18A3A71F18B3A79F18C3A81F18B3B41
:1022F00089F18C3B91F18D3A99F1803BA1F18E3AB5
:10230000A9F18F3AB1F1813BB9F1823BC1F1833B35
:10231000C9F1843BD1F1853BD9F1863BE1F1873BA3
:10232000E9F1883BF1F1893BF9F18A3B09F03FC0C3
:102330008AE292E03EC082EE90E03BC089EE90E0FF
:1023400038C08AEE90E035C085EB90E032C086EB75
:1023500090E02FC083EB90E02CC084EB90E029C08C
:1023600087EB90E026C08CEC90E023C08DEC90E0F1
:1023700020C083E891E01DC08AE891E01AC082E99C
:1023800091E017C084E991E014C081E292E011C0AD
:1023900083E292E00EC084E292E00BC085E292E01C
:1023A00008C086E292E005C087E292E002C080E0C9
:1023B00090E00C94D30F0895882309F45DC082380F
:1023C00079F40E949B0F81FF57C069E3809102015D
:1023D000909103010E94D21B0E94AA1A69E310C0C7
:1023E0008338B1F40E949B0F80FF46C063E5809163
:1023F0000201909103010E94D21B0E94AA1A63E578
:1024000080910201909103010E94DD1B0C94AA1A95
:10241000843879F40E949B0F82FF2EC067E480917C
:102420000201909103010E94D21B0E94AA1A67E444
:10243000E7CF9CEF980F913A10F4682FE1CF90E22C
:10244000980F983050F4877091E001C0990F8A95E9
:10245000EAF7892F0E94E61AD9CF9BE5980F9330AF
:1024600020F480E090E00C94BD0F885A853120F470
:1024700080E090E00C94D30F0895882321F00E940F
:10248000E01A0C94AA1A0895882321F00E94E61AF3
:102490000C94AA1A08958F929F92BF92CF92DF92C6
:1024A000EF92FF920F931F93CF93DF9300D0CDB79E
:1024B000DEB74C01472FFC01C580C2949FE0C922C2
:1024C000D280DD2031F079836A830E94FD1A6A810F
:1024D000498149836A830E94A31A49816A818823BA
:1024E00089F0DD2079F080E2860F883058F082E0B4
:1024F0000E948C1A0E94A31ABB24B394B826498167
:102500006A8101C0B12CE42EE2948FE0E822F12C24
:10251000F701E859FF4F0C946B2B842F807F142F09
:102520001F70882311F01295107FDD20C1F0112358
:1025300009F4D9C180E2860F883010F0611105C01E
:10254000812F6A830E94E01A04C0812F6A830E944F
:10255000F01A6A816A830E94AA1A6A81C4C1862F0E
:102560006A830E94DC116A81112309F403C280E2AC
:10257000860F883010F0611104C0812F0E94E61A86
:1025800003C0812F0E94F61A0E94AA1AF3C1242FB9
:10259000207F842F8F70203211F08295807F6623F8
:1025A00019F06130B9F022C0DD2049F0CC2009F4E7
:1025B0004EC1F1E0CF124BC10E94101BDBC1CC20F9
:1025C00021F021E0C21609F4D5C189830E94131BB2
:1025D000898143C1DD2029F095E09C1508F4CAC12A
:1025E00036C1E4E0EC1508F4C5C137C1DD2051F077
:1025F000CC2009F42CC1F401958190FF74C19F7027
:10260000958325C1CC2009F428C17EC1242F2695AD
:102610002695237030E02115310521F02130310558
:1026200061F0A8C1DD2021F0862F942F937002C0A5
:1026300080E090E00E94BD0FADC1DD2021F0862F2B
:10264000942F937002C080E090E00E94D30FA2C14B
:10265000DD20F9F0653F51F0663F71F0643FA9F469
:1026600080913E0290913F0281600BC080913E02BA
:1026700090913F02826005C080913E0290913F029E
:10268000846090933F0280933E02862F0E94E21E58
:102690001EC0653F51F0663F71F0643FA9F4809120
:1026A0003E0290913F028E7F0BC080913E0290913E
:1026B0003F028D7F05C080913E0290913F028B7F4B
:1026C00090933F0280933E02862F0E944A1F0E94F1
:1026D000CF1F60C1842F837009F04EC0D11056C146
:1026E000262F229526952770220F220F862F8F7076
:1026F000C82ED12CE12CF12C022E04C0CC0CDD1CF8
:10270000EE1CFF1C0A94D2F764FF10C06FE070E06B
:1027100080E090E004C0660F771F881F991F2A95FC
:10272000D2F7609570958095909503C060E070E059
:10273000CB01242F26952695237030E022303105D9
:1027400069F02330310589F06C297D298E299F2974
:102750002130310571F00E94571918C16C297D296B
:102760008E299F290E94691911C10E945719C7011A
:10277000B6010E9445190AC1DD2019F0842F81702D
:1027800001C08695882309F401C1262F229526953C
:102790002770220F220F862F8F70C82ED12CE12C8C
:1027A000F12C022E04C0CC0CDD1CEE1CFF1C0A9484
:1027B000D2F764FF10C06FE070E080E090E004C0EA
:1027C000660F771F881F991F2A95D2F7609570951D
:1027D0008095909503C060E070E0CB01242F269592
:1027E0002695237030E02230310569F02330310521
:1027F00089F06C297D298E299F292130310571F0BE
:102800000E94051AC3C06C297D298E299F290E9428
:10281000171ABCC00E94051AC701B6010E94F3191D
:10282000B5C0062F10E0F801E05EF109E531F105D1
:1028300008F055C0E858FF4F0C946B2B162F1F70F3
:10284000842F8F71DD2031F00E949E19812F0E940C
:102850003D1290C00E94B919812F0E9444128AC073
:10286000DD2049F0F4E0FC1508F484C0842F8F715A
:102870000E94D8197FC025E02C1508F47BC0F6CF44
:10288000DD2039F0842F8F710E949E1973C0DD20E6
:10289000C9F3842F8F710E94B9196CC0DD2029F013
:1028A000842F8F710E948F1965C00E948A1962C09F
:1028B000DD2051F0142F1F71812F0E949E1963E0BB
:1028C000812F0E94831A56C081E00E948C1A81E0F9
:1028D0008C1508F04FC082E00E948C1A4BC0DD209E
:1028E00031F0CC2079F2862F0E94E41043C0CC2036
:1028F00081F2693349F49FEFE7EEF3E09150E04055
:10290000F040E1F700C00000862F0E94DC1132C0C9
:102910004F70C4010E94FF020E94B3183BC0D11047
:1029200039C0942F9F70292F30E022303105B9F043
:102930004CF42115310581F021303105D9F40E9484
:10294000A82028C02330310569F02430310591F4E6
:10295000862F0E94FC201EC00E948C201BC00E945B
:10296000C42018C00E94D72015C04F70C4010E9417
:10297000E60510C028E0E216F10441F05CF09AE0B0
:10298000E91AF108E2E0EE16F10420F40E949B0F30
:102990000E94E405BB20F1F00E947F1A80FD1AC05E
:1029A000F40112820E94791A0E949E19C4010E94A9
:1029B000F8140E94791A0F900F90DF91CF911F9118
:1029C0000F91FF90EF90DF90CF90BF909F908F90EE
:1029D0000C94B9190F900F90DF91CF911F910F9127
:1029E000FF90EF90DF90CF90BF909F908F900895D1
:1029F0000F931F93CF93DF93EC01288139818B8153
:102A00009C81892B31F03F3F11F080E003C02F3FC4
:102A1000E1F781E0811113C0CE010E9423038823D6
:102A200071F0688179818A810E94751A8C010E94F7
:102A3000291A0E944219B801CE010E944B12DF915F
:102A4000CF911F910F9108950E94FD1A0E940D1BB6
:102A500080910201909103010E94E81B0E94AA1A32
:102A60000E9463200E94CF1F80E090E00E94BD0F73
:102A700080E090E00C94D30F0E94ED1A0C94241582
:102A80000E946A1AE92FE295EF70F0E03297EE307B
:102A9000F105B8F4E357FF4F0C946B2B803F59F0CE
:102AA00018F4803E70F407C0843F59F404C0803E9F
:102AB00010F0813F31F481E0089593FB882780F97D
:102AC000089580E00895CF93DF9300D000D01F9247
:102AD000CDB7DEB70F900F900F900F900F90DF9152
:102AE000CF910895CF93DF9300D000D000D0CDB721
:102AF000DEB726960FB6F894DEBF0FBECDBFDF91CE
:102B0000CF9108951F93CF93DF93C091910116E069
:102B100080919201C81799F0D0E01C9FF0011D9F91
:102B2000F00D1124ED56FE4F408151816281738179
:102B3000848195810E9472152196C770E9CFDF913B
:102B4000CF911F9108954091C3015091C4016091AC
:102B5000C5017091C6018091C7019091C8010C9484
:102B60007215CF938091C80182958F7009F05FC074
:102B70008091C501882309F45AC020919101A09148
:102B800092016091C3017091C4018091C60190913E
:102B9000C70131E06F3F09F030E0B32FC6E02A17DC
:102BA00009F445C0009721F07F3F21F44B2F03C06B
:102BB00041E001C040E030E040FD35C0C29FF0017F
:102BC000C39FF00D1124ED56FE4F418174132BC0AD
:102BD0004081641328C04281411125C04381548142
:102BE0004817590710F441505109481B590B483CEC
:102BF0005105C8F48091C8018F7080618093C8012D
:102C000086E0829FF001839FF00D1124E856FE4F6D
:102C100080818F708061808383EC91E00E94F81442
:102C2000CF910C9482152F5F3F4F2770B8CFCF9173
:102C30000895CF92DF92EF92FF920F931F93CF935D
:102C4000DF93CDB7DEB762970FB6F894DEBF0FBE45
:102C5000CDBF8C0185E0F801DE011D9601900D923B
:102C60008A95E1F7D8014C9111965C9111971296D3
:102C70006C9112971396ED90FC9014977091C3018C
:102C8000E091C4012091C6013091C70121153105A1
:102C900031F0EF3F31F481E07F3F19F403C081E070
:102CA00001C080E0B82FB170CB2E80FD6CC1D090F8
:102CB000C501DD2009F4F5C0F091C801E216F30664
:102CC00038F0C701821B930B883C910548F09BC0EC
:102CD000209530952E0D3F1D283C310508F093C0FE
:102CE0008F2F807F09F052C0E51314C0741312C0F7
:102CF000D62E61110FC0FF70F061F093C8010E94E1
:102D0000A31583EC91E00E94F8148091C801F801AA
:102D100085836CC1EF2831F05F3F31F481E04F3F94
:102D200019F403C081E001C080E080FD03C081E0B0
:102D3000862701C080E0F82FF170FF2E80FF1CC0B5
:102D4000809191012091920136E0821709F428C107
:102D500090E0389FF001399FF00D1124ED56FE4FA1
:102D60007181571306C07081471303C072816713C6
:102D700003C001968770E9CFD62E662309F436C1C9
:102D80008091C80181608093C80153C0E51308C0D9
:102D9000741306C0611104C0D8011596FC93AEC02F
:102DA0004D875E878D859E856A8B0E9440156A8956
:102DB000882329F1D62E662311F12091C801822F94
:102DC00082958F7090E002970CF460C08091C301EF
:102DD0009091C40198878F831986FB86EA862C8799
:102DE000CE01079651C0E51731F14D875E878D857D
:102DF0009E856A8B0E9440156A8981112EC0C80188
:102E00000E94F814A4C08F2F807F69F77E2DF98A65
:102E1000E88A89890E94631583EC91E00E94F81486
:102E2000E3ECF1E086E0DF011D928A95E9F70E946C
:102E3000A315D12CDBC07413D8CF6111D6CFD80124
:102E40001596FC93C8010E94F814E3ECF1E086E0CB
:102E5000DF011D928A95E9F7C9C0D62E662379F263
:102E60002091C801822F82958F7090E0029774F0B4
:102E70008091C3019091C4019A8389831B82FD8252
:102E8000EC822E83CE0101960E94F81486E0F801B0
:102E9000A3ECB1E001900D928A95E1F70E94B11583
:102EA0006FC0E216F30628F0C701821B930B9C014A
:102EB00004C0209530952E0D3F1D283C310508F0AB
:102EC00052C0D62E662309F49ACFE5132CC0741392
:102ED0002AC08091C80180FD1DC0982F92959F70D7
:102EE000C9F0D80115968C9315979F3039F09F5FE4
:102EF0009295907F8F70892B15968C93C8010E94B4
:102F0000F81486E0F801A3ECB1E001900D928A95E7
:102F1000E1F736C086E0F801A3ECB1E001900D9234
:102F20008A95E1F763C04D875E878D859E850E94F7
:102F30004015882379F086E0F801A3ECB1E0019018
:102F40000D928A95E1F70E94B1150E94A315DD2428
:102F5000D3944CC08091C80181608093C801C8019E
:102F60000E94F81443C07E2DF98AE88A89890E945C
:102F70006315E3ECF1E086E0DF011D928A95E9F745
:102F80000E94A31533C0662309F439CF4D875E87AD
:102F90008D859E850E944015882309F430CFCBCFC4
:102FA0004D875E878D859E850E946A1A292F2295FE
:102FB0002F7030E0223031052CF49F7041F08111E8
:102FC00006C00CC0243031052CF49F7049F4805E9B
:102FD000883020F0C8010E94F814CF2CDC2C06C0E9
:102FE000D80115969C91907F91F7F8CF8D2D629620
:102FF0000FB6F894DEBF0FBECDBFDF91CF911F910A
:103000000F91FF90EF90DF90CF9008951F93CF9393
:10301000DF93CDB7DEB72C970FB6F894DEBF0FBEA7
:10302000CDBF4F83588769877A878B879C87CE016E
:1030300007960E9419168823C1F02F8138858A854A
:103040009B85892B31F03F3F11F080E003C02F3F7B
:10305000E1F781E0811147C04F81588569857A8504
:103060008B859C850E9472153EC086E0FE013796D6
:10307000DE01119601900D928A95E1F7FF81E885B6
:103080004A855B854115510531F0EF3F31F481E010
:10309000FF3F19F403C081E001C080E080FD23C040
:1030A0002091920130E0C9010196877099276091C3
:1030B000910170E086179707F1F1F983EA835D8348
:1030C0004C8396E0929FD001939FB00D1124AD5692
:1030D000BE4FFE01319601900D929A95E1F78093D3
:1030E00092010E94821516E08091910190919201C7
:1030F000891779F1189FC00111248D569E4F0E94A7
:103100001916882331F1E09191011E9FF0011124DD
:10311000ED56FE4F4081518162817381848195819A
:103120000E9472158091910190E001968770992715
:1031300080939101D9CF0E943C1510929201109278
:103140009101E3ECF1E086E0DF011D928A95E9F759
:10315000CACF2C960FB6F894DEBF0FBECDBFDF915D
:10316000CF911F910895EF92FF920F931F93CF93EA
:10317000DF939C01009709F471C0F12CEE24E394D5
:10318000E9012196F9018491843740F4843008F0F4
:1031900056C0813081F0823021F160C0853709F45A
:1031A00049C0C0F19CE7980F903708F057C08F775F
:1031B0000E94DC1146C089010E5F1F4FFE01849101
:1031C00090E2980F983050F48770FE2D01C0FF0FE9
:1031D0008A95EAF78F2F0E94001B15C00E94E41009
:1031E00014C089010E5F1F4FFE01849190E2980F79
:1031F000983068F48770FE2D01C0FF0F8A95EAF7BA
:103200008F2F0E94061B0E94AA1AE8011AC00E9472
:10321000DC11FBCF2E5F3F4FFE01C491CC2341F068
:103220008FE99FE00197F1F700C00000C150F6CF91
:10323000E90107C0FE01F490E901229602C00E9454
:10324000E4108F2D882341F0EFE9FFE03197F1F78B
:1032500000C000008150F6CF9E0192CFDF91CF9148
:103260001F910F91FF90EF90089508950E943519D6
:103270006093CD017093CE018093CF019093D001E4
:103280000C94241508950C9436190F931F930091F4
:10329000CD011091CE012091CF013091D001602B52
:1032A000712B822B932B1F910F910C9436190F9336
:1032B0001F930091CD011091CE012091CF0130914B
:1032C000D00160237123822393231F910F910C94CB
:1032D00036190F931F930091CD011091CE012091CB
:1032E000CF013091D00160277127822793271F914A
:1032F0000F910C94361908950C947B190E947C1937
:103300006093C9017093CA018093CB019093CC0163
:103310000C94241560E070E0CB010C947E1941E020
:1033200050E060E070E004C0440F551F661F771F37
:103330008A95D2F7CB01BA010C947E1941E050E096
:1033400060E070E004C0440F551F661F771F8A9528
:10335000D2F78091C9019091CA01A091CB01B0919F
:10336000CC01482B592B6A2B7B2BCB01BA010C9437
:103370007E1941E050E060E070E004C0440F551F4A
:10338000661F771F8A95D2F7409550956095709586
:103390008091C9019091CA01A091CB01B091CC015B
:1033A000482359236A237B23CB01BA010C947E194D
:1033B00041E050E060E070E004C0440F551F661F1C
:1033C000771F8A95D2F78091C9019091CA01A09187
:1033D000CB01B091CC01482759276A277B27CB0125
:1033E000BA010C947E190F931F930091C90110919B
:1033F000CA012091CB013091CC01602B712B822B23
:10340000932B1F910F910C947E190F931F93009192
:10341000C9011091CA012091CB013091CC016023E8
:103420007123822393231F910F910C947E190F9384
:103430001F930091C9011091CA012091CB013091D5
:10344000CC0160277127822793271F910F910C943D
:103450007E190895CF92DF92EF92FF920F931F9300
:10346000CF93DF93EC01C090CD01D090CE01E090DE
:10347000CF01F090D0018091C9019091CA01A09133
:10348000CB01B091CC01C82AD92AEA2AFB2A0FE144
:1034900010E0B701A601002E04C0769567955795F8
:1034A00047950A94D2F740FD05C00150110988F7ED
:1034B00080E007C0BE01802F0E9401060197A9F39A
:1034C000802FDF91CF911F910F91FF90EF90DF90B0
:1034D000CF900895CF93DF93EC010E942A1ABE018A
:1034E0000E940106DF91CF910895CB010E946A1AD4
:1034F00008958091D1018595859585950895809150
:10350000D1018770089598E0899F90011124622B62
:103510006093D1010C949E194091D1018095842330
:103520008093D101982F977069F450E0282F3327AA
:1035300027FD30954217530729F085958595859588
:103540000C94B91908959091D101977081E009F414
:1035500080E00895E0910201F09103018091F5016E
:103560008083E0910201F091030180819091F40148
:10357000892B8083E0910201F09103018081909179
:10358000F301892B80839091D201992381F0E091FE
:103590000201F09103018081892B808380910201D7
:1035A000909103010E946B1B81111092D2018091B6
:1035B0000201909103010C94A70F8091F5010895E9
:1035C0009091F501982B9093F50108958095909135
:1035D000F50198239093F50108951092F50108954F
:1035E0009091F401982B9093F40108958095909117
:1035F000F40198239093F40108951092F401089532
:103600009091F301982B9093F301089580959091F8
:10361000F30198239093F30108951092F301089514
:103620008093D20108951092D20108956DEE7EEF3D
:1036300080E090E00E94A32B60E082E090E00E9496
:10364000852B60E083E090E00E94852B60E084E0C1
:1036500090E00E94852B60E085E090E00E94852B41
:1036600060E086E090E00E94852B40E050E0BA01E7
:1036700088E090E00C94972B80E090E00E947F2BF4
:1036800021E08D3E9E4F09F020E0822F089582E0D8
:1036900090E00C94712B682F82E090E00C94852BC5
:1036A00083E090E00C94712B682F83E090E00C9401
:1036B000852B84E090E00C94712B682F84E090E0DF
:1036C0000C94852B86E090E00C94712B682F86E09B
:1036D00090E00C94852B20E030E040E0FC01E20F0C
:1036E000F31F518151114F5F2F5F3F4F2F31310534
:1036F000A9F7842F089520E030E04FEFFC01E20F9E
:10370000F31F5281561799F04F3F19F4511101C020
:10371000422F2F5F3F4F2E31310581F74F3F39F058
:10372000FC01E40FF11D47FDFA95628308950895A9
:1037300020E030E0FC01E20FF31F4281461301C09C
:1037400012822F5F3F4F2E313105A1F70895262FAA
:103750002695269526952F3170F4FC01E20FF11D78
:10376000677021E030E0062E01C0220F0A94EAF7CC
:103770008181822B81830895262F26952695269573
:103780002F3178F4FC01E20FF11D677021E030E089
:10379000062E01C0220F0A94EAF720958181282382
:1037A0002183089520911401222329F020914402BD
:1037B00027FD0C94A71B0C947B1B20911401222342
:1037C00029F02091440227FD0C94BC1B0C94981BFB
:1037D00020E030E0FC01E20FF31F11822F5F3F4F2A
:1037E0002F313105B9F7089580914B02843039F1BA
:1037F0001092F70120E488E190E00FB6F894A895C4
:10380000809360000FBE2093600080E00E94B205AC
:1038100080E00E94E40583B7817F846083BF83B723
:10382000816083BF7894889583B78E7F83BF88E15A
:103830000FB6F89480936000109260000FBE089558
:1038400008950895CF930E94201C0E940F090E94A2
:10385000211CC0E08C2F0E94BB09892B29F4CF5F6B
:10386000C530C1F780E001C081E0CF9108950E948A
:103870003C150E946F200E949B0F0C94E4051F9240
:103880000F920FB60F9211248F939F93AF93BF9314
:103890008091F701811113C0809140029091410203
:1038A000A0914202B09143024196A11DB11D8093A7
:1038B000400290934102A0934202B0934302BF9111
:1038C000AF919F918F910F900FBE0F901F90189501
:1038D00082E084BD93E095BD9AEF97BD80936E0022
:1038E00008952FB7F8948091400290914102A091E1
:1038F0004202B09143022FBF0895CF92DF92EF9220
:10390000FF920F931F932FB7F8944091400250916C
:10391000410260914202709143022FBF6A017B0114
:10392000EE24FF248C0120E030E0C016D106E20630
:10393000F30610F441505109481B590BCA011F915D
:103940000F91FF90EF90DF90CF90089578941F92A1
:103950000F920FB60F9211248F939F93AF93BF9343
:103960008091400290914102A0914202B0914302A5
:103970000196A11DB11D8093400290934102A09336
:103980004202B0934302BF91AF919F918F910F90EC
:103990000FBE0F901F9018950E943825F8942FEFB6
:1039A00087EA91E6215080409040E1F700C0000096
:1039B00087E090EBDC018093540290935502A09332
:1039C0005602B09357022CE088E190E00FB6F894CD
:1039D000A895809360000FBE20936000FFCFBF9238
:1039E000CF92DF92EF92FF920F931F93CF93DF93CB
:1039F000B12C01E010E0E82EF12C8B2D0E94BB09C8
:103A00006C01C0E0D0E098010C2E02C0220F331FE1
:103A10000A94E2F72C213D21232B29F42196CE3064
:103A2000D10589F70AC06C2F7B2D80E00E94E70545
:103A3000E816F90699F781E005C0B39485E0B8125D
:103A4000DCCF80E0DF91CF911F910F91FF90EF903D
:103A5000DF90CF90BF900895CF93C82F8CE20E9443
:103A6000EF1C882321F08C2FCF910C94EF1C80E069
:103A7000CF910895CF930E943C1B811102C00E94F8
:103A8000161BC5E6C15049F00E940F098FE39CE95F
:103A90000197F1F700C00000F5CF89E20E942C1DCC
:103AA00081110DC18AE20E942C1D81110E94161BFA
:103AB00085E00E942C1D81110E94CC1C0E94471B96
:103AC0008093F60187E00E942C1D882399F18BE1F9
:103AD0000E942C1D882351F09091F60191FB8827BC
:103AE00080F921E0822780FB91F922C08EE00E94BC
:103AF0002C1D882351F09091F60192FB882780F9C4
:103B000021E0822780FB92F913C080E10E942C1DE6
:103B10009091F601882341F093FB882780F921E0FA
:103B2000822780FB93F904C0892F809580FB90F950
:103B30009093F6018091F6010E944B1B0E94591B45
:103B400090E0909345028093440280EE0E942C1DE9
:103B5000882341F080914402982F909590FB80F942
:103B60008093440289E30E942C1D882359F0909190
:103B7000440291FB882780F921E0822780FB91F99C
:103B80009093440282EE0E942C1D882359F090915C
:103B9000440292FB882780F921E0822780FB92F97A
:103BA0009093440286EE0E942C1D882359F0909138
:103BB000440293FB882780F921E0822780FB93F958
:103BC0009093440283EE0E942C1D882359F090911B
:103BD000440294FB882780F921E0822780FB94F936
:103BE0009093440285E30E942C1D882359F0909104
:103BF000440295FB882780F921E0822780FB95F914
:103C00009093440281E30E942C1D882359F09091E7
:103C1000440296FB882780F921E0822780FB96F9F1
:103C20009093440281E10E942C1D882359F09091C9
:103C3000440297FB882780F921E0822780FB97F9CF
:103C400090934402809144020E945D1B87E20E948F
:103C50002C1DC82F8EE10E942C1D8111C2608FE1A6
:103C60000E942C1D8111C46080E20E942C1D8111D4
:103C7000C86081E20E942C1D8111C06182E20E9415
:103C80002C1D8111C06283E20E942C1D8111C06431
:103C900084E20E942C1D882311F0C06802C0CC234E
:103CA00029F08C2F0E94541B6C2F03C00E94501BC4
:103CB000682F70E080E090E0CF910C944319CF9191
:103CC00008958091FA0180FF0BC06091070185E0A3
:103CD000689FB001112475956795759567952AC001
:103CE00081FF09C06091070185E0689FB001112440
:103CF000759567951FC082FF07C06091070185E039
:103D0000689FB001112416C04091FB014423C9F003
:103D100060910601461788F72091070185E0289FEA
:103D200090011124429FC001439F900D112470E027
:103D30000E94572B6038710540F46115710539F008
:103D400002C065E070E0862F08958FE7089581E056
:103D500008958091FA0180FF08C06091050170E02C
:103D6000759567957595679521C081FF06C060912F
:103D7000050170E07595679519C082FF04C06091D8
:103D8000050170E010C08091FB018823C1F06091B3
:103D900004018617A0F790910501989FC001112496
:103DA00070E00E94572B6038710528F46115710589
:103DB00021F0862F08958FE7089581E0089561E04E
:103DC00070E0F4CF803F21F40E94611E819504C011
:103DD000813F29F40E94611E8093FE010895823F75
:103DE00021F40E94611E819504C0833F29F40E9442
:103DF000611E8093FD010895893F19F40E94A91E58
:103E000005C08A3F31F40E94A91E81958093FF016D
:103E100008958B3F21F40E94A91E819504C08C3F18
:103E200029F40E94A91E809300020895843F21F482
:103E30008091FC01816017C0853F21F48091FC01D5
:103E4000826011C0863F21F48091FC0184600BC028
:103E5000873F21F48091FC01886005C0883F31F4E0
:103E60008091FC0180618093FC0108958D3F21F4D5
:103E70008091FA0181600BC08E3F21F48091FA019C
:103E8000826005C08F3F29F48091FA01846080939D
:103E9000FA010895803F39F48091FE0187FF6CC0DC
:103EA0001092FE0169C0813F29F48091FE0118162D
:103EB000BCF362C09091FD01823F29F497FF5CC082
:103EC0001092FD0159C0833F19F41916CCF354C068
:103ED000893F41F48091FF0118160CF04DC01092FB
:103EE000FF014AC08A3F29F48091FF0187FF44C047
:103EF000F6CF8B3F39F48091000287FF3DC01092CE
:103F000000023AC08C3F29F4809100021816BCF3DD
:103F100033C0843F21F48091FC018E7F17C0853F20
:103F200021F48091FC018D7F11C0863F21F48091A6
:103F3000FC018B7F0BC0873F21F48091FC01877FC0
:103F400005C0883F31F48091FC018F7E8093FC0195
:103F500013C08D3F21F48091FA018E7F0BC08E3FFC
:103F600021F48091FA018D7F05C08F3F29F4809163
:103F7000FA018B7F8093FA018091FD0181110EC0BF
:103F80008091FE0181110AC08091FF01811106C05C
:103F900080910002811102C01092FB0108958CEF04
:103FA00091E00E94B20F0E94711C9093F9018093DE
:103FB000F80108951F93CF93DF938091F8019091BA
:103FC000F9010E947D1C4091FB01442321F02091C6
:103FD000080130E006C0209109015AE0259F9001B8
:103FE00011248217930708F46AC08091FD01109193
:103FF000FE01D091FF01C0910002811107C0111193
:1040000005C0D11103C0CC2309F459C04F3F19F0AA
:104010004F5F4093FB01181624F40E94611E8093A9
:10402000FD018091FD0187FF05C00E94611E819501
:104030008093FD01111624F40E94611E8093FE01FD
:104040008091FE0187FF05C00E94611E81958093CB
:10405000FE012091FD01222379F04091FE014423CD
:1040600059F055EB2503900111243093FD014503D0
:10407000C00111249093FE011D1624F40E94A91E74
:104080008093FF018091FF0187FF05C00E94A91E58
:1040900081958093FF011C1624F40E94A91E809331
:1040A00000028091000287FF05C00E94A91E819531
:1040B00080930002DF91CF911F910C94CF1FDF916D
:1040C000CF911F910895ECEFF1E085E0DF011D92A3
:1040D0008A95E9F71092FB011092FA0108950E9467
:1040E0003C1B811102C00E94161B0E94621B809320
:1040F0004602282F269530E02730310524F08170C4
:104100008C60809346028091460280FF02C08695B3
:1041100001C080E00C94B20520914602322F369502
:10412000832F90E0069744F491E0930F990F822F2C
:104130008170892B80934602809146028160809332
:1041400046020E94661B8091460286950C94B20539
:1041500080914602982F969591F09158990F817011
:10416000892B809346028E7F91E009F490E0809144
:10417000460290FB80F9809346020E94661B809164
:10418000460286950C94B20580914602982F909530
:1041900090FB80F9809346020E94661B8091460244
:1041A00080FF02C0869501C080E00C94B20530917A
:1041B0004602232F26952F5F2F77822F90E03170B4
:1041C00007972CF4220F232B2093460202C0309332
:1041D0004602809146028E7F91E009F490E0809142
:1041E000460290FB80F9809346020E94661B8091F4
:1041F000460286950C94B20520914602922F969520
:104200009827990F822F8170892B809346028E7F89
:1042100091E009F490E08091460290FB80F9809350
:1042200046020E94661B8091460286950C94B20558
:104230008091210208950F931F93CF93DF9300D0B5
:104240001F92CDB7DEB78C010E948923823011F016
:10425000843019F583E089831B830A838093E90006
:104260008FEF9091E800815095FD06C095ED9A95ED
:10427000F1F700008111F5CF8091E80085FF0DC0B6
:1042800040E050E063E070E0CE0101960E94A6237A
:104290008091E8008E778093E8000F900F900F9048
:1042A000DF91CF911F910F910895CF93DF9300D0AD
:1042B0001F92CDB7DEB720914B02243031F522E0BA
:1042C0002983805891099B838A8383E08093E90046
:1042D0008FEF9091E800815095FD06C095ED9A957D
:1042E000F1F700008111F5CF8091E80085FF0DC046
:1042F00040E050E063E070E0CE0101960E94A6230A
:104300008091E8008E778093E8000F900F900F90D7
:10431000DF91CF910895CF93DF93EC010E94892321
:10432000823011F08430F9F482E08093E9008FEF5D
:104330009091E800815095FD06C095ED9A95F1F7B2
:1043400000008111F5CF8091E80085FF0CC040E0AE
:1043500050E065E070E0CE010E94A6238091E80065
:104360008E778093E800DF91CF910895CF93DF930C
:10437000EC010E948923823019F0843009F047C093
:10438000809114018823E1F08091440287FF18C0D6
:1043900084E08093E9008FEF9091E800815095FDD3
:1043A00006C095E19A95F1F700008111F5CF809153
:1043B000E80085FF2CC040E050E060E270E017C0EC
:1043C00081E08093E9008FEF9091E800815095FDA6
:1043D00006C095ED9A95F1F700008111F5CF809117
:1043E000E80085FF14C040E050E068E070E0CE01D6
:1043F0000E94A6238091E8008E778093E80080E2F7
:10440000FE01A1E0B2E001900D928A95E1F7DF9103
:10441000CF91089580914A02811109C00E943825E8
:104420000E9495258091E20084608093E2000895C7
:1044300010924A020895089508950C94371C42E0A2
:1044400061EC81E00E94B22442E061EC82E00E94D3
:10445000B22442E061EC83E00E94B22442E261ECCB
:1044600084E00C94B22480914D02833009F455C04D
:1044700030F4813071F0823009F48EC008958A30B2
:1044800009F47AC08B3009F460C0893009F09CC00F
:1044900020C080914C02813A09F096C08091E800DA
:1044A000877F8093E8008091500290915102892B80
:1044B00021F060E080E090E003C060E281E092E003
:1044C00070E00E94EF238091E8008B778093E800F2
:1044D000089580914C02813209F076C0809150029B
:1044E00090915102009719F0039709F06DC08091E7
:1044F000E800877F8093E8008091E80082FD05C096
:1045000080914B028111F8CF5FC08091F1008093C0
:1045100021028091E8008B7753C080914C02813A50
:1045200009F052C08091500290915102892B09F0FC
:104530004BC08091E800877F8093E8008091E8007D
:1045400080FFFCCF8091140136C080914C028132F3
:10455000D9F58091500290915102892BA9F5809153
:10456000E800877F8093E8000E94E72480914E0254
:10457000809314010C943C1580914C02813221F5FA
:104580008091E800877F8093E8000E94E724809173
:104590004F0280932202089580914C02813AA1F447
:1045A0008091E800877F8093E8008091E80080FF99
:1045B000FCCF809122028093F1008091E8008E77F9
:1045C0008093E8000C94E724089584B7877F84BF24
:1045D00088E10FB6F89480936000109260000FBEDF
:1045E00080E880936100109261000E94EA0F0E94AF
:1045F00038250E9495258091E20084608093E20036
:1046000078940E9418280E94EE0F8AE091E00E94A0
:10461000960F80914B02853069F40E94F41B8091C3
:1046200049028823B1F30E94221C882391F30E943F
:104630009023EFCF0E94F80F0E94290FEACF292F75
:10464000332723303105A9F06CF42130310509F40A
:1046500042C02230310509F043C08DE690E026EEDD
:1046600033E042C021323105C9F02232310519F15F
:1046700037C099278130910541F08230910541F092
:10468000892B71F5E2EEF3E005C0E4EDF3E002C042
:10469000E4ECF3E0849190E09F0126C06430710562
:1046A000F8F4FB01EE0FFF1FEC5CFE4F208131811F
:1046B00089E090E019C06430710590F4FB01EE0FC1
:1046C000FF1FE45DFE4F20813181FB01E85DFE4F5D
:1046D000808190E009C082E190E023E534E004C0ED
:1046E00080E090E020E030E0FA01318320830895FB
:1046F0000895CF93C82F0E947823C0932302CF91AF
:10470000089580914B02843011F482E0089581E095
:10471000089580912302811102C00C948123089591
:1047200080E189BD82E189BD09B400FEFDCF8091A1
:10473000D8008F7D8093D8008091E00082608093C4
:10474000E0008091E00081FDFCCF0895CF92DF92E0
:10475000EF92FF920F931F93CF93DF937C018B0116
:10476000EA010E940825811131C0209731F088812B
:104770009981081B190BE80EF91EC12CD12C0115CB
:10478000110519F18091E80085FD14C08091E800C1
:104790008E778093E800209741F0888199818C0D75
:1047A0009D1D9983888385E011C00E940825882378
:1047B00031F30CC0F70181917F018093F10001502A
:1047C0001109FFEFCF1ADF0ADACF80E0DF91CF9136
:1047D0001F910F91FF90EF90DF90CF90089520915F
:1047E0005202309153022617370748F061157105C0
:1047F00039F42091E8002E772093E80001C0B90138
:10480000FC0120E061157105B9F180914B0288230C
:1048100009F440C0853009F43FC08091E80083FD71
:104820003DC08091E80082FF06C08091E80082FFD1
:1048300026C080E008958091E80080FFE3CF2091BA
:10484000F3008091F20090E0922B6115710551F018
:104850008830910538F421912093F100615071095D
:104860000196F3CF21E0089709F020E08091E8005D
:104870008E778093E800C6CF2111C7CFD6CF809125
:104880004B02882339F0853039F08091E80083FFAE
:10489000CCCF04C082E0089583E0089581E00895BC
:1048A00020915202309153022617370748F06115C4
:1048B000710539F42091E8002E772093E80001C0BB
:1048C000B901FC0120E061157105C1F180914B0235
:1048D000882309F441C0853009F440C08091E80084
:1048E00083FD3EC08091E80082FF06C08091E80011
:1048F00082FF27C080E008958091E80080FFE3CF29
:104900002091F3008091F20090E0922B61157105E7
:1049100059F08830910540F424912093F1003196AC
:10492000615071090196F2CF21E0089709F020E06B
:104930008091E8008E778093E800C5CF2111C6CF23
:10494000D5CF80914B02882339F0853039F08091A2
:10495000E80083FFCBCF04C082E0089583E0089590
:1049600081E00895982F973058F59093E9009817B3
:1049700039F07091EC002091ED005091F00003C0EF
:10498000242F762F50E021FF19C03091EB003E7F9D
:104990003093EB003091ED003D7F3093ED0030918E
:1049A000EB0031603093EB007093EC002093ED004E
:1049B0005093F0002091EE0027FF07C09F5FD3CFF8
:1049C0008F708093E90081E0089580E008958091E0
:1049D0004C0287FD05C08091E80080FF0EC012C028
:1049E0008091E80082FD05C080914B028111F8CFD3
:1049F00008958091E8008B7708C080914B02811167
:104A0000EACF08958091E8008E778093E8000895BA
:104A10008091E4009091E50045E62091EC0020FFB4
:104A200021C02091E80020FD21C020914B022223CB
:104A300089F0253089F02091EB0025FD0FC02091F1
:104A4000E4003091E5002817390739F3415041F06F
:104A5000C901E3CF82E0089583E0089581E00895DD
:104A600084E008952091E80022FFDFCF80E00895E0
:104A70000E94A6250E94AE25E0EEF0E080818160D4
:104A80008083E8EDF0E080818F77808319BCA7ED0B
:104A9000B0E08C918E7F8C9380818F7E808310928A
:104AA0004A0208950F931F93CF93DF930E94A62588
:104AB0000E94AE25C8EDD0E088818F7788838881F9
:104AC0008068888388818F7D888319BC10924B020F
:104AD00010924702109249021092480200EE10E034
:104AE000F80180818B7F808388818160888342E0A8
:104AF00060E080E00E94B224E1EEF0E080818E7FF1
:104B00008083E2EEF0E08081816080838081886034
:104B10008083F80180818E7F808388818061888393
:104B2000DF91CF911F910F910895E8EDF0E0808122
:104B30008F7E8083E7EDF0E080818160808384E078
:104B400082BF81E080934A020C945225E8EDF0E0A8
:104B500080818E7F80831092E20008951092DA00A7
:104B60001092E10008951F920F920FB60F92112438
:104B70002F933F934F935F936F937F938F939F9365
:104B8000AF93BF93EF93FF938091E10082FF0BC03F
:104B90008091E20082FF07C08091E1008B7F8093CB
:104BA000E1000E9417288091DA0080FF1FC08091E9
:104BB000D80080FF1BC08091DA008E7F8093DA00DE
:104BC0008091D90080FF0DC080E189BD82E189BD5F
:104BD00009B400FEFDCF81E080934B020E940A22BF
:104BE00005C019BC10924B020E9418228091E1006E
:104BF00080FF19C08091E20080FF15C08091E20023
:104C00008E7F8093E2008091E20080618093E200D9
:104C10008091D80080628093D80019BC85E0809391
:104C20004B020E941C228091E10084FF30C08091E1
:104C3000E20084FF2CC080E189BD82E189BD09B416
:104C400000FEFDCF8091D8008F7D8093D8008091A9
:104C5000E1008F7E8093E1008091E2008F7E80935F
:104C6000E2008091E20081608093E200809147023F
:104C7000882311F084E007C08091E30087FF02C021
:104C800083E001C081E080934B020E941D2280914D
:104C9000E10083FF29C08091E20083FF25C080915D
:104CA000E100877F8093E10082E080934B021092C5
:104CB00047028091E1008E7F8093E1008091E200C5
:104CC0008E7F8093E2008091E20080618093E20019
:104CD00042E060E080E00E94B2248091F0008860B1
:104CE0008093F0000E941B22FF91EF91BF91AF9142
:104CF0009F918F917F916F915F914F913F912F91F4
:104D00000F900FBE0F901F9018951F920F920FB625
:104D10000F9211242F933F934F935F936F937F9341
:104D20008F939F93AF93BF93CF93EF93FF93C091D4
:104D3000E900CF708091EC001092E9008091F000C2
:104D4000877F8093F00078940E94C1261092E9003A
:104D50008091F00088608093F000C093E900FF919B
:104D6000EF91CF91BF91AF919F918F917F916F9173
:104D70005F914F913F912F910F900FBE0F901F9019
:104D800018951F93CF93DF93CDB7DEB7AA970FB6D1
:104D9000F894DEBF0FBECDBFECE4F2E08091F100ED
:104DA000819322E0E435F207C9F70E943322809113
:104DB000E80083FF24C120914C0230914D02832FE3
:104DC00090E08A30910508F01AC1FC01E556FF4FCA
:104DD0000C946B2B203821F0223809F010C108C048
:104DE0008091480290914902992389F082600FC016
:104DF000809150028F70873008F001C18093E900E4
:104E00008091EB0085FB882780F91092E900909152
:104E1000E800977F9093E8008093F1001092F100F2
:104E2000CCC0822F8D7F09F0EAC0222319F02230F6
:104E300061F0E5C080914E02813009F0E0C033306E
:104E400009F080E0809349022AC080914E028111CE
:104E500026C0209150022F708FEF820F863008F00D
:104E6000CEC02093E9008091EB0080FF18C08091B4
:104E7000EB00333011F4806210C080618093EB004E
:104E800081E090E001C0880F2A95EAF78093EA005C
:104E90001092EA008091EB0088608093EB00109202
:104EA000E9008091E800877F8093E8000E94E72472
:104EB000A6C02111A4C010914E021F778091E3007B
:104EC0008078812B8093E3008091E800877F809336
:104ED000E8000E94E7248091E80080FFFCCF8091E9
:104EE000E30080688093E300112311F083E001C0A8
:104EF00082E080934B0283C02058223008F07FC0AC
:104F000080914E0290914F028C3D23E0920779F5FB
:104F100083E08A838AE289834FB7F894DE0113968F
:104F200020E03EE051E2E32FF0E050935700E4919F
:104F300020FF03C0E295EF703F5FEF708E2F90E08F
:104F4000EA3010F0C79601C0C0968D939D932F5FF5
:104F5000243149F74FBF8091E800877F8093E800B4
:104F60006AE270E0CE0101960E94EF2315C06091C5
:104F7000500270915102AE014F5F5F4F0E941F239C
:104F80000097E9F12091E800277F2093E800BC0119
:104F900089819A810E9450248091E8008B778093C8
:104FA000E8002DC0203859F58091E800877F809374
:104FB000E800809147028093F1008091E8008E77AD
:104FC00073CF21111CC090914E029230C0F4809199
:104FD000E800877F8093E800909347020E94E724CF
:104FE00080914702811104C08091E30087FF02C0D5
:104FF00084E001C081E080934B020E941F228091D7
:10500000E80083FF0AC08091E800877F8093E80072
:105010008091EB0080628093EB00AA960FB6F89423
:10502000DEBF0FBECDBFDF91CF911F9108950895D0
:10503000CF9380914B028823B1F08091E9008F706B
:105040009091EC0090FF02C090E801C090E0C92F61
:10505000C82B1092E9008091E80083FD0E94C126D0
:10506000CF70C093E900CF9108955058BB27AA276D
:105070000ED09EC18FD130F094D120F031F49F3FFB
:1050800011F41EF45FC10EF4E095E7FB55C1E92F62
:10509000A0D180F3BA17620773078407950718F049
:1050A00071F49EF5B8C10EF4E0950B2EBA2FA02D29
:1050B0000B01B90190010C01CA01A0011124FF27C5
:1050C000591B99F0593F50F4503E68F11A16F040C0
:1050D000A22F232F342F4427585FF3CF46953795BF
:1050E0002795A795F0405395C9F77EF41F16BA0B84
:1050F000620B730B840BBAF09150A1F0FF0FBB1F32
:10510000661F771F881FC2F70EC0BA0F621F731F7A
:10511000841F48F4879577956795B795F7959E3FD7
:1051200008F0B3CF9395880F08F09927EE0F979565
:10513000879508950CD03CC134D140F02BD130F08C
:1051400021F45F3F19F0F8C0511166C1FBC041D195
:1051500098F39923C9F35523B1F3951B550BBB273E
:10516000AA2762177307840738F09F5F5F4F220FEB
:10517000331F441FAA1FA9F333D00E2E3AF0E0E8E4
:1051800030D091505040E695001CCAF729D0FE2F30
:1051900027D0660F771F881FBB1F261737074807C2
:1051A000AB07B0E809F0BB0B802DBF01FF27935878
:1051B0005F4F2AF09E3F510568F0BEC02DC15F3F92
:1051C000ECF3983EDCF3869577956795B795F79560
:1051D0009F5FC9F7880F911D9695879597F9089558
:1051E000E1E0660F771F881FBB1F621773078407F4
:1051F000BA0720F0621B730B840BBA0BEE1F88F703
:10520000E095089519F40EF097C005C19BC0E9D050
:10521000C8F39638C0F707F80F92E8942BE33AEA00
:1052200048EB5FE77DD10F920F920F924DB75EB7BB
:105230000F9235D1EAE4F1E088D04F915F91EF9180
:10524000FF91E595EE1FFF1F49F0FE57E0684427E8
:10525000EE0F441FFA95E1F74195550BECD00F90F6
:1052600007FEE0C00895BDD088F09F5790F0B92F99
:105270009927B751A0F0D1F0660F771F881F991FAB
:105280001AF0BA95C9F712C0B13081F0C4D0B1E0BC
:105290000895C1C0672F782F8827B85F39F0B93FCC
:1052A000CCF3869577956795B395D9F73EF49095AD
:1052B0008095709561957F4F8F4F9F4F0895E8942B
:1052C00009C097FB3EF490958095709561957F4F4E
:1052D0008F4F9F4F9923A9F0F92F96E9BB279395FC
:1052E000F695879577956795B795F111F8CFFAF40C
:1052F000BB0F11F460FF1BC06F5F7F4F8F4F9F4F3D
:1053000016C0882311F096E911C0772321F09EE89A
:10531000872F762F05C0662371F096E8862F70E000
:1053200060E02AF09A95660F771F881FDAF7880FDA
:105330009695879597F9089597F99F6780E870E0AB
:1053400060E008959FEF80EC0895DF93CF931F9363
:105350000F93FF92EF92DF927B018C01689405C05E
:10536000DA2EEF01DBD0FE01E894A591259135916D
:1053700045915591AEF3EF018ADEFE019701A80138
:10538000DA9479F7DF90EF90FF900F911F91CF9112
:10539000DF91089500240A941616170618060906C8
:1053A000089500240A94121613061406050608959B
:1053B000092E0394000C11F4882352F0BB0F40F423
:1053C000BF2B11F460FF04C06F5F7F4F8F4F9F4F63
:1053D000089557FD9058440F551F59F05F3F71F0E5
:1053E0004795880F97FB991F61F09F3F79F087954C
:1053F0000895121613061406551FF2CF4695F1DFD5
:1054000008C0161617061806991FF1CF8695710564
:10541000610508940895E894BB2766277727CB0198
:1054200097F908959B01AC0160E070E080E89FE38C
:1054300081CE82CFD0C0D5DFE8F39923D9F3940F82
:10544000511DBBF39150504094F059F0882332F035
:10545000660F771F881F91505040C1F79E3F51053E
:1054600044F7880F911D9695879597F908955F3FAA
:10547000ACF0983E9CF0BB27869577956795B795DD
:1054800008F4B1609395C1F7BB0F58F711F460FFB2
:10549000E8CF6F5F7F4F8F4F9F4FE3CFBDCFFA01B4
:1054A000DC01AA0FBB1F9B01AC01BF5728F42227C8
:1054B0003327442750781FC0B75188F4AB2F0024FE
:1054C000469537952795011CA395D2F3002069F0E6
:1054D000220F331F441FB395DAF30DD0C6CD6130D0
:1054E0007105A0E88A07B94630F49B01AC01662734
:1054F000772788279078309621F020833183428364
:10550000538308950BD054CF45DF28F04ADF18F0BD
:10551000952309F011CF16CF11247ECF5ADFA0F3C7
:10552000959FD1F3950F50E0551F629FF001729F38
:10553000BB27F00DB11D639FAA27F00DB11DAA1F57
:10554000649F6627B00DA11D661F829F2227B00DA4
:10555000A11D621F739FB00DA11D621F839FA00D2F
:10556000611D221F749F3327A00D611D231F849F7F
:10557000600D211D822F762F6A2F11249F575040D6
:105580008AF0E1F088234AF0EE0FFF1FBB1F661F71
:10559000771F881F91505040A9F79E3F510570F02A
:1055A000CBCE3ACF5F3FECF3983EDCF38695779510
:1055B0006795B795F795E7959F5FC1F7FE2B880F25
:1055C000911D9695879597F908959F9313D00F9005
:1055D00007FCEE5F36C09F3F31F0915020F4879575
:1055E00077956795B795880F911D9695879597F94B
:1055F0000895A8CEF6DEE8F3E894E0E0BB279F57D5
:10560000F0F02AED3FE049EC06C0EE0FBB0F661F3D
:10561000771F881F28F0B23A62077307840728F0C3
:10562000B25A620B730B840BE3959A9572F780382C
:1056300030F49A95BB0F661F771F881FD2F79048EA
:10564000CCCFEF93E0FF06C0A2EA2AED3FE049ECA1
:105650005FEB1DDDADDE0F90039401FC9058E2E797
:10566000F1E000C09F938F937F936F93FF93EF932D
:105670009B01AC0147DFEF91FF9167DE2F913F91D6
:105680004F915F913FCFAA1BBB1B51E107C0AA1FDF
:10569000BB1FA617B70710F0A61BB70B881F991FD3
:1056A0005A95A9F780959095BC01CD01089597FB77
:1056B000072E16F4009407D077FD09D00E94432BE3
:1056C00007FC05D03EF4909581959F4F0895709505
:1056D00061957F4F0895EE0FFF1F0590F491E02D27
:1056E0000994F999FECF92BD81BDF89A992780B5AA
:1056F0000895A6E1B0E044E050E00C94AB2BA8E1A3
:10570000B0E042E050E00C94AB2B262FF999FECF8D
:1057100092BD81BDF89A019700B4021639F01FBA04
:1057200020BD0FB6F894FA9AF99A0FBE0895039621
:10573000272F0E94862B0E94852B252F0E94862BC7
:10574000242F0C94862B0196272F0E94862B0C94D5
:10575000852BDC01CB01FC01F999FECF06C0F2BD1F
:10576000E1BDF89A319600B40D9241505040B8F71F
:065770000895F894FFCF3C
:105776000102D3012808140A321E1821B6218B21F2
:1057860055211B2101F0F1C6676636943137353451
:105796009796339091929395404D36392105D404CE
:0C57A6009E046504F80311042A04430467
:00000001FF
